:020000040800F2
:10000000280400207D03000835010008370100089E
:1000100000000000000000000000000000000000E0
:100020000000000000000000000000003B0100088C
:1000300000000000000000003D0100083F01000832
:100040008F0300088F0300088F0300088F03000848
:100050008F0300088F0300088F0300088F03000838
:100060008F0300088F0300088F0300088F03000828
:100070008F0300088F0300088F0300088F03000818
:100080008F0300088F030008000000008F030008A2
:100090008F0300088F0300088F0300088F030008F8
:1000A0008F0300088F0300088F0300081901000860
:1000B0008F030008000000008F030008000000000C
:1000C0000448854600F07AFA00480047F10000082D
:1000D000C046C0462804002008B5002100910090C9
:1000E00002E00099491E009100990029F9DC08BD41
:1000F00000F0B4F800F026F800BF00F0E3F8044682
:1001000004490968C808FFF7E7FF204600F059F8DE
:10011000F3E700000400002010B50948C069202161
:100120000840002805D0064920318988C8B200F06F
:10013000A1F810BD704700BFFEE7704770477047D9
:100140000038014010B54048406901214904084386
:100150003D4948610920C00600680521C9040843DB
:100160000921C90608600846406AFF211131084389
:100170000921C9064862344880690121890308437E
:1001800031498861FF20A230304988810D20086004
:1001900000204860886008460068202108432B49F9
:1001A00008601B2001218140294A116000BF002105
:1001B00000F012F81B2001218140264A116000BF87
:1001C00010BD00BF2149C969802211400029F9D022
:1001D0001E4920310881704710B5002819DA1E4ADF
:1001E00003071B0F083B9B089B00D2588307DC0EBC
:1001F000FF23A3409A438B071B0E8407E40EA34002
:100200001A43154B0407240F083CA408A4001A51F4
:1002100018E00F4A03231B02D21883089B00D25810
:100220008307DC0EFF23A3409A438B071B0E840732
:10023000E40EA3401A43064B032424021B1984082E
:10024000A4001A5110BD0000001002400038014007
:1002500000E100E080E200E01CED00E010B500F0FD
:1002600051F810BD0146092901DB002000E0481CBF
:10027000C0B2704710B504461F482049097844545D
:100280001E480078FFF7EEFF1C4908701C480178F3
:100290001A48007800F057F8012010BD00B500237F
:1002A00000221648027807E0581CC3B21046FFF738
:1002B000D9FF0246501CC2B2114800788242F3D1E5
:1002C000184600BD10B5FFF7E9FF002801DC00204B
:1002D00010BD09480A490978445C09480078FFF7CD
:1002E000C1FF07490870084601780448007800F00B
:1002F0002AF82046ECE7000018000020000000204B
:10030000010000201A4840690121C9040843184926
:100310004861184800681849084316490860704742
:100320000146092901DB002000E0481CC0B27047EB
:100330000246012004E00346534398B24B1ED9B253
:100340000029F8DC704770B505460C46002608E029
:1003500021460220FFF7ECFF06432046FFF7E0FFAF
:100360000446A542F4D17004000C0249888270BD95
:10037000001002400008004854551500044880470A
:1003800004480047FEE7FEE7FEE7FEE7FEE7FEE77C
:1003900067040008C10000080CB50020019000901F
:1003A000734800680121090408437149086000BFCF
:1003B0006F48006801214904084000900198401CE2
:1003C00001900098002804D1052109020198884273
:1003D000EED167480068012149040840002802D096
:1003E0000120009001E0002000900098012839D100
:1003F0001120604908605E4840685D4948600846D1
:1004000040684860084640683F21090488435849CD
:10041000486008464068112109040843544948606F
:10042000084600680121090608435149086000BFD9
:100430004F4800680121490608400028F8D04C4880
:100440004068800880004A494860084640680221A8
:1004500008434749486000BF454840680C210840B0
:100460000828F9D10CBD10B54148006801210843A6
:100470003F490860084640683F4908403C49486099
:10048000084600683D490840394908600846006848
:1004900001218904884336490860084640683F21A5
:1004A00009048843324948600846C06A00090001CF
:1004B000C8620846006BFF21543188432C49086309
:1004C0000846406B40084000486300208860FFF702
:1004D00063FF10BDF8B5002500240026002724483E
:1004E00040680C2108400546002D04D0042D06D09C
:1004F000082D2AD107E022482249086029E0204837
:100500002049086025E01A4840680F218904084006
:100510000446174840680121090408400646A00C1B
:10052000841C002E04D118486043164908600BE073
:100530000F48C06A0007000F471C3946104800F0FA
:1005400027F860430F49086003E00D480D49086033
:1005500000BF00BF06484068F021084000090B4971
:100560000D5C08480068E84006490860F8BD0000D6
:1005700000100240002002400CB8FFF8FFFFF6FE1A
:1005800000127A000400002000093D00080000204D
:1005900030B50B46014600202022012409E00D461B
:1005A000D5409D4205D31D469540491B25469540A3
:1005B00040191546521E002DF1DC30BD064C0125B8
:1005C000064E05E0E36807CC2B430C3C98471034FB
:1005D000B442F7D3FFF778FD0006000820060008B4
:1005E00002E008C8121F08C1002AFAD170477047FC
:1005F000002001E001C1121F002AFBD1704700005A
:10060000200600080000002018000000E005000897
:10061000380600081800002010040000F00500084B
:1006200000000000006CDC02000000000000000080
:0806300001020304060708099A
:04000005080000C12E
:00000001FF
