:020000040800F2
:100000002804002041030008170300081903000812
:1000100000000000000000000000000000000000E0
:100020000000000000000000000000001D030008A8
:1000300000000000000000001F030008210300086A
:100040005303000853030008530300085303000838
:100050005303000853030008530300085303000828
:100060005303000853030008530300085303000818
:100070005303000853030008530300085303000808
:100080005303000853030008000000005303000856
:1000900053030008530300085303000853030008E8
:1000A000530300085303000853030008FB02000831
:1000B0005303000800000000530300080000000084
:1000C0000448854600F05CFA004800476D010008CE
:1000D000C046C0462804002010B5484840690121A8
:1000E00049040843454948610920C00600680521C4
:1000F000C90408430921C90608600846406AFF216F
:10010000113108430921C90648623C488069012130
:100110008903084339498861FF20A2303849888122
:100120000D20086000204860886008460068202193
:100130000843334908601B2001218140314A116086
:1001400000BF002100F023F81B20012181402E4A2E
:10015000116000BF10BD00BF2949C969802211404C
:100160000029F9D026492031088170472348406989
:100170000121C904084321494861244800682449F1
:10018000084322490860FFF7A7FF00BFFEE710B54C
:10019000002819DA1F4A03071B0F083B9B089B0026
:1001A000D2588307DC0EFF23A3409A438B071B0E14
:1001B0008407E40EA3401A43164B0407240F083C9F
:1001C000A408A4001A5118E00E4A03231B02D218F7
:1001D00083089B00D2588307DC0EFF23A3409A4379
:1001E0008B071B0E8407E40EA3401A43054B032420
:1001F00024021B198408A4001A5110BD00100240EB
:100200000038014000E100E080E200E00008004822
:10021000545515001CED00E0424840690121C90415
:1002200008434049486140480068404908433E4906
:10023000086070470146092901DB002000E0481CE6
:10024000C0B270470246012004E00346534398B20F
:100250004B1ED9B20029F8DC704770B505460C4634
:10026000002608E021460220FFF7ECFF0643204667
:10027000FFF7E0FF0446A542F4D17004000C2A49C0
:10028000888270BD00B5FFF7C7FF00BD0146092990
:1002900001DB002000E0481CC0B2704710B50446E6
:1002A000234824490978445422480078FFF7EEFF98
:1002B00020490870204801781E480078FFF7CDFFDC
:1002C000012010BD0120704710B5FFF7FBFF00288B
:1002D00001DC002010BD164817490978445C164817
:1002E0000078FFF7D3FF14490870084601781148D9
:1002F0000078FFF7B2FF2046ECE700B50F48C06971
:1003000020210840002805D00C4920318988C8B236
:10031000FFF7C4FF00BD704700BFFEE7704770479E
:1003200070470000001002400008004854551500B6
:1003300018000020000000200100002000380140CB
:100340000448804704480047FEE7FEE7FEE7FEE773
:10035000FEE7FEE72B040008C10000080CB50020F2
:100360000190009073480068012109040843714915
:10037000086000BF6F4800680121490408400090F0
:100380000198401C01900098002804D10521090221
:1003900001988842EED1674800680121490408406D
:1003A000002802D00120009001E000200090009879
:1003B000012839D11120604908605E4840685D49D4
:1003C0004860084640684860084640683F21090484
:1003D0008843584948600846406811210904084389
:1003E00054494860084600680121090608435149FC
:1003F000086000BF4F4800680121490608400028F6
:10040000F8D04C484068800880004A494860084657
:100410004068022108434749486000BF454840689A
:100420000C2108400828F9D10CBD10B541480068DE
:10043000012108433F490860084640683F49084099
:100440003C494860084600683D4908403949086011
:100450000846006801218904884336490860084637
:1004600040683F2109048843324948600846C06A11
:1004700000090001C8620846006BFF21543188431F
:100480002C4908630846406B400840004863002040
:100490008860FFF763FF10BDF8B500250024002633
:1004A0000027244840680C2108400546002D04D050
:1004B000042D06D0082D2AD107E0224822490860E1
:1004C00029E020482049086025E01A4840680F21AB
:1004D000890408400446174840680121090408407F
:1004E0000646A00C841C002E04D11848604316490F
:1004F00008600BE00F48C06A0007000F471C394630
:10050000104800F027F860430F49086003E00D48E9
:100510000D49086000BF00BF06484068F021084050
:1005200000090B490D5C08480068E840064908606E
:10053000F8BD000000100240002002400CB8FFF897
:10054000FFFFF6FE00127A000400002000093D00C3
:100550000800002030B50B4601460020202201246F
:1005600009E00D46D5409D4205D31D469540491BE7
:100570002546954040191546521E002DF1DC30BD30
:10058000064C0125064E05E0E36807CC2B430C3CE6
:1005900098471034B442F7D3FFF796FDC40500081E
:1005A000E405000802E008C8121F08C1002AFAD1B9
:1005B00070477047002001E001C1121F002AFBD1E3
:1005C00070470000E405000800000020180000004B
:1005D000A4050008FC050008180000201004000015
:1005E000B405000800000000006CDC020000000000
:0C05F000000000000102030406070809D7
:04000005080000C12E
:00000001FF
