:020000040800F2
:1000000018040020D5020008B5020008B702000855
:1000100000000000000000000000000000000000E0
:10002000000000000000000000000000BB0200080B
:100030000000000000000000BD020008BF02000830
:10004000E7020008E7020008E7020008E7020008EC
:10005000E7020008E7020008E7020008E7020008DC
:10006000E7020008E7020008E7020008E7020008CC
:10007000E7020008E7020008E7020008E7020008BC
:10008000E7020008E702000800000000E70200089D
:10009000E7020008E7020008E7020008E70200089C
:1000A000E7020008E7020008E702000899020008DA
:1000B000E702000800000000E7020008000000005E
:1000C0000448854600F026FA004800479B010008D6
:1000D000C046C0461804002010B5594840690121A7
:1000E00049040843564948610920C00600680521B3
:1000F000C90408430921C90608600846406AFF216F
:10010000113108430921C90648624D48806901211F
:10011000890308434A498861FF20A2304949888100
:100120000D20086000204860886008460068202193
:100130000843444908601B2001218140424A116064
:1001400000BF002100F044F81B20012181403F4AFC
:10015000116000BF10BD3B49C96908221140002948
:1001600004D03849096A1143364A116200BF354943
:10017000C969202211400029F9D0324920318988EB
:10018000C8B2704700BF2F49C969802211400029B9
:10019000F9D02C4920310881704729484069012154
:1001A000C904084326494861294800682949084389
:1001B00027490860FFF790FF00BFFEE708B50090F1
:1001C00002E00099491E009100990029F9DC08BD60
:1001D00010B5002819DA204A03071B0F083B9B08BB
:1001E0009B00D2588307DC0EFF23A3409A438B0762
:1001F0001B0E8407E40EA3401A43174B0407240F79
:10020000083CA408A4001A5118E00F4A03231B025B
:10021000D21883089B00D2588307DC0EFF23A3402B
:100220009A438B071B0E8407E40EA3401A43064B28
:10023000032424021B198408A4001A5110BD0000D5
:10024000001002400038014000E100E080E200E0E0
:1002500000080048545515001CED00E0184840699E
:100260000121C90408431649486116480068164927
:100270000843144908607047014614480088401C30
:10028000124A1080104600880E4A90820120704762
:10029000632070470120704700B50D48C0692021D8
:1002A0000840002805D00A4920318988C8B2FFF7E4
:1002B000E3FF00BD704700BFFEE77047704770471F
:1002C00000100240000800485455150000000020AE
:1002D000003801400448804704480047FEE7FEE735
:1002E000FEE7FEE7FEE7FEE7BF030008C1000008E7
:1002F0000CB50020019000907348006801210904AA
:1003000008437149086000BF6F4800680121490433
:10031000084000900198401C01900098002804D1EA
:100320000521090201988842EED167480068012141
:1003300049040840002802D00120009001E000207C
:1003400000900098012839D11120604908605E486A
:1003500040685D4948600846406848600846406813
:100360003F210904884358494860084640681121E4
:1003700009040843544948600846006801210906F9
:1003800008435149086000BF4F48006801214906F1
:1003900008400028F8D04C484068800880004A494E
:1003A000486008464068022108434749486000BF4A
:1003B000454840680C2108400828F9D10CBD10B50B
:1003C00041480068012108433F49086008464068E9
:1003D0003F4908403C494860084600683D4908409C
:1003E0003949086008460068012189048843364974
:1003F0000860084640683F21090488433249486044
:100400000846C06A00090001C8620846006BFF2167
:10041000543188432C4908630846406B400840002B
:10042000486300208860FFF763FF10BDF8B5002522
:10043000002400260027244840680C210840054677
:10044000002D04D0042D06D0082D2AD107E0224823
:100450002249086029E020482049086025E01A4820
:1004600040680F218904084004461748406801216C
:10047000090408400646A00C841C002E04D118482C
:100480006043164908600BE00F48C06A0007000F80
:10049000471C3946104800F027F860430F490860B0
:1004A00003E00D480D49086000BF00BF06484068E2
:1004B000F021084000090B490D5C08480068E8403D
:1004C00006490860F8BD000000100240002002400C
:1004D0000CB8FFF8FFFFF6FE00127A0004000020BF
:1004E00000093D000800002030B50B460146002001
:1004F0002022012409E00D46D5409D4205D31D462A
:100500009540491B2546954040191546521E002D21
:10051000F1DC30BD064C0125064E05E0E36807CC52
:100520002B430C3C98471034B442F7D3FFF7CCFD73
:10053000580500087805000802E008C8121F08C125
:10054000002AFAD170477047002001E001C1121F54
:10055000002AFBD170470000780500080000002049
:100560001800000038050008900500081800002059
:10057000000400004805000800000000006CDC02D8
:100580000000000000000000010203040607080943
:04000005080000C12E
:00000001FF
