:020000040800F2
:1000000018040020C1010008B3010008B501000870
:1000100000000000000000000000000000000000E0
:10002000000000000000000000000000B90100080E
:100030000000000000000000BB010008BD01000836
:10004000D3010008D3010008D3010008D301000840
:10005000D3010008D3010008D3010008D301000830
:10006000D3010008D3010008D3010008D301000820
:10007000D3010008D3010008D3010008D301000810
:10008000D3010008D301000800000000D3010008DC
:10009000D3010008D3010008D3010008D3010008F0
:1000A000D3010008D3010008D3010008B101000802
:1000B000D301000800000000D30100080000000088
:1000C0000448854600F09CF9004800477B01000881
:1000D000C046C04618040020324840690121490446
:1000E0000843304948610920C00600680521C90459
:1000F00008430921C90608600846406AFF211131FA
:1001000008430921C90648622648806901218903FC
:10011000084324498861FF20A230234988810D20AB
:1001200008600020486088601B20012181401F4A30
:10013000116000BF70471C49C9690822114000299D
:1001400004D01949096A1143174A116200BF1649C0
:10015000C969202211400029F9D01349203189882A
:10016000C8B2704700BF1049C969802211400029F8
:10017000F9D00D49203108817047FFF7ADFF06E047
:10018000FFF7D9FF03461846FFF7ECFF00BFF7E77C
:1001900008B5009002E00099491E009100990029DD
:1001A000F9DC08BD001002400038014000E100E029
:1001B0007047704700BFFEE7704770477047000008
:1001C0000448804704480047FEE7FEE7FEE7FEE7F5
:1001D000FEE7FEE7AB020008C10000080CB50020F6
:1001E0000190009073480068012109040843714997
:1001F000086000BF6F480068012149040840009072
:100200000198401C01900098002804D105210902A2
:1002100001988842EED167480068012149040840EE
:10022000002802D00120009001E0002000900098FA
:10023000012839D11120604908605E4840685D4955
:100240004860084640684860084640683F21090405
:10025000884358494860084640681121090408430A
:10026000544948600846006801210906084351497D
:10027000086000BF4F480068012149060840002877
:10028000F8D04C484068800880004A4948600846D9
:100290004068022108434749486000BF454840681C
:1002A0000C2108400828F9D10CBD10B54148006860
:1002B000012108433F490860084640683F4908401B
:1002C0003C494860084600683D4908403949086093
:1002D00008460068012189048843364908600846B9
:1002E00040683F2109048843324948600846C06A93
:1002F00000090001C8620846006BFF2154318843A1
:100300002C4908630846406B4008400048630020C1
:100310008860FFF763FF10BDF8B5002500240026B4
:100320000027244840680C2108400546002D04D0D1
:10033000042D06D0082D2AD107E022482249086062
:1003400029E020482049086025E01A4840680F212C
:100350008904084004461748406801210904084000
:100360000646A00C841C002E04D118486043164990
:1003700008600BE00F48C06A0007000F471C3946B1
:10038000104800F027F860430F49086003E00D486B
:100390000D49086000BF00BF06484068F0210840D2
:1003A00000090B490D5C08480068E84006490860F0
:1003B000F8BD000000100240002002400CB8FFF819
:1003C000FFFFF6FE00127A000000002000093D0049
:1003D0000400002030B50B460146002020220124F5
:1003E00009E00D46D5409D4205D31D469540491B69
:1003F0002546954040191546521E002DF1DC30BDB2
:10040000064C0125064E05E0E36807CC2B430C3C67
:1004100098471034B442F7D3FFF756FE440400085F
:100420006404000802E008C8121F08C1002AFAD1BB
:1004300070477047002001E001C1121F002AFBD164
:100440007047000064040008000000201400000051
:1004500024040008780400081400002004040000AC
:1004600034040008006CDC02000000000000000002
:0804700001020304060708095C
:04000005080000C12E
:00000001FF
